:100000000C94EC000C9414010C9414010C94140145
:100010000C9414010C9414010C9414010C9414010C
:100020000C9414010C9414010C9414010C941401FC
:100030000C9414010C9414010C9414010C941401EC
:100040000C94DE100C9414010C94F30D0C94250EFA
:100050000C9414010C9414010C9414010C941401CC
:100060000C940E140C941401FC1502160C161A169E
:100070001C1622162C163A164C164E1600407A10F4
:10008000F35A00A0724E18090010A5D4E80000E849
:100090007648170000E40B54020000CA9A3B0000A7
:1000A00000E1F505000080969800000040420F0036
:1000B0000000A08601000000102700000000E803F7
:1000C000000000006400000000000A0000000000C2
:1000D0000100000000002C76D888DC674F0823DF81
:1000E000C1DFAE59E1B1B796E5E3E453C63AE65154
:1000F000997696E8E6C28426EB898C9B62ED407C7B
:100100006FFCEFBC9C9F40F2BAA56FA5F490055A16
:100110002AF75C936B6CF9676DC11BFCE0E40D473B
:10012000FEF520E6B500D0ED902E0300943577055E
:100130000080841E080000204E0A000000C80C3316
:100140003333330F986E12831141EF8D2114893BA5
:10015000E65516CFFEE6DB18D1844B381BF77C1D25
:10016000901DA4BBE424203284725E228100C9F178
:1001700024ECA1E53D270000000800020100000377
:100180000407000000000000000001020408102025
:100190004080010204081020010204081020040419
:1001A000040404040404020202020202030303031F
:1001B00003030000000023002600290000000000C7
:1001C000250028002B0000000000240027002A0042
:1001D000BF02550E5E13660311241FBECFEFD8E099
:1001E000DEBFCDBF12E0A0E0B1E0E8E3F2E402C080
:1001F00005900D92A431B107D9F724E0A4E1B2E053
:1002000001C01D92A432B207E1F710E0CBEED0E0BE
:1002100004C02197FE010E948E20C83ED107C9F775
:100220000E94CF100C940A190C940000BC0184E1C8
:1002300092E00C949E090F931F93CF93DF9300D00D
:10024000CDB7DEB761E088E00E94041261E088E08B
:100250000E94401262E083E00E94041262E084E0A7
:100260000E94041262E085E00E94041262E082E0D3
:100270000E94041266E171E08AE392E00E94D10BD1
:1002800066E171E08AE392E00E94D50B26E040E847
:1002900055E260E070E08AEB92E00E948E0D83E010
:1002A0000E94701290936B0280936A0284E192E044
:1002B0000E94900B84E192E00E94A00A40E061E07D
:1002C00084E192E00E94F20A6EE071E084E192E043
:1002D0000E94D00E41E065E084E192E00E94F20AC3
:1002E00062E271E084E192E00E94D00E80E590E04D
:1002F0000E94F920898381E590E00E94F9208A8399
:1003000089819A818F3F2FEF9207C9F58CE090E0A9
:100310009093AD028093AC0280E590E09093AF02A1
:100320008093AE021092B1021092B0021092B3020A
:100330001092B20288E893E1A0E0B0E08093B402AA
:100340009093B502A093B602B093B70200E010E01C
:10035000F801E455FD4F6081C8010E9401210F5F43
:100360001F4F0C301105A1F761E080E590E00E947D
:10037000012160E081E590E00E94012110C0019719
:1003800071F400E010E0C8010E94F920F801E45582
:10039000FD4F80830F5F1F4F0C301105A1F7209197
:1003A000AC023091AD028091860290918702289F25
:1003B000A001299F500D389F500D1124052E000CCF
:1003C000660B770B80E292E00F900F90DF91CF9158
:1003D0001F910F910C946115CF92DF92EF92FF92D3
:1003E0008091820290918302892B51F468EE73E030
:1003F00080E090E00E94591184E192E00E94920313
:1004000084E192E00E94B9090E942811C0908802FC
:10041000D0908902E0908A02F0908B026C197D09DD
:100420008E099F090E94211A6B017C018091B00204
:100430009091B102BC01990F880B990B0E94231A6D
:1004400020E030E048EC52E40E94D81A9B01AC0155
:10045000C701B6010E94D31A87FD42C08091A8024D
:100460009091A902892BE1F16091B4027091B502DB
:100470008091B6029091B7020E94231A6B017C0111
:100480008091AE029091AF02BC01990F880B990B3D
:100490000E94231A20E030E048EC52E40E947919CF
:1004A0009B01AC01C701B6010E94D81A0E94EB194A
:1004B00084E192E00E9405040E9428116093880262
:1004C0007093890280938A0290938B021092A90202
:1004D0001092A80281E090E09093AB028093AA0270
:1004E0000E942811C0908802D0908902E0908A0270
:1004F000F0908B026C197D098E099F090E94211AC8
:100500006B017C018091B2029091B302BC01990F02
:10051000880B990B0E94231A20E030E048EC52E44B
:100520000E94D81A9B01AC01C701B6010E94D31AE0
:1005300087FD20C08091AA029091AB02892BD1F057
:1005400064E170E084E192E00E94050481E090E0C3
:100550009093A9028093A8021092AB021092AA0273
:100560000E942811609388027093890280938A0206
:1005700090938B02FF90EF90DF90CF9008950F93B0
:100580001F9322E040E167E284E192E00E947B0A4F
:1005900027E030E046E050E060E072E380E292E085
:1005A0000E943B1502E310E021E042E065E08AE3AF
:1005B00092E00E94920B10926402109265021092D7
:1005C00066021092670210926D0210926C0288E22D
:1005D00090E090936F0280936E0283E090E090939E
:1005E00071028093700284E690E09093730280938E
:1005F00072022AE030E030937502209374029093E7
:1006000077028093760210927902109278028AE043
:1006100090E0A0E0B0E080937A0290937B02A093F8
:100620007C02B0937D0280ED97E0A0E0B0E0809383
:100630007E0290937F02A0938002B0938102109279
:1006400083021092820210928502109284028CED35
:1006500095E0909387028093860210928802109210
:10066000890210928A0210928B0210928C021092D0
:100670008D0210928E0210928F026EE071E080E97E
:1006800092E00E94410F62E271E086E992E00E94EE
:10069000410F6DE371E08CE992E00E94410F6DE340
:1006A00071E082EA92E00E94410F81E090E0909335
:1006B000A9028093A8021092AB021092AA02909312
:1006C000B9028093B8021F910F91089582EA92E0D7
:1006D0000E94D30E8CE992E00E94D30E86E992E04C
:1006E0000E94D30E80E992E00C94D30EEF92FF9219
:1006F0000F931F932E153F054007510754F09801A3
:10070000870106171707280739072CF48B019C016E
:1007100002C089019A01C901B8011F910F91FF9090
:10072000EF9008950F931F93CF93DF93EC0162E056
:1007300082E00E9404128E01045F1F4F82E00E943B
:100740007012892B31F46FEF7FEFC8010E946B1696
:10075000F5CF8E01045F1F4F82E00E947012892B3B
:1007600031F061E070E0C8010E946B16F5CFFE0128
:10077000E059FF4F11821082329781E090E091831F
:100780008083CE01DF91CF911F910F910C94D608F9
:100790008F929F92AF92BF92CF92DF92EF92FF9291
:1007A0000F931F93CF93DF93EC010E9428114B010D
:1007B0005C018E01045F1F4F82E00E947012892B42
:1007C000B9F00E9428116B017C0161E070E0C80162
:1007D0000E946B16C818D908EA08FB0885E6C816F7
:1007E000D104E104F10440F3C059DF4F19821882AB
:1007F000DF91CF911F910F91FF90EF90DF90CF90FD
:10080000BF90AF909F908F900895CF92DF92EF921C
:10081000FF920F931F93CF93DF938C017B01EC0129
:10082000C059DF4F6C012CE0C20ED11C8881998128
:100830008E159F0541F1C8010E94B90988819981EF
:100840009701281B390BC901181619065CF461E0E1
:1008500070E0C6010E946B16888199810196998388
:1008600088830DC0892B11F36FEF7FEFC6010E94C3
:100870006B16288139812150310939832883C801B9
:100880000E94C803D3CFDF91CF911F910F91FF90AA
:10089000EF90DF90CF900895AF92BF92CF92DF920A
:1008A000EF92FF920F931F93CF93DF93EC017B01A5
:1008B0008A015C0128E8A20EB11CB501C7010E94A3
:1008C000BC109E0122573F4F6901882331F0B901C6
:1008D000C8010E94BC10811127C0CE010E94E40A09
:1008E00040E060E0CE010E94F20AB701CE010E9412
:1008F000C20E41E060E0CE010E94F20AB801CE01D2
:100900000E94C20EB701C5010E94930FB801C60133
:10091000DF91CF911F910F91FF90EF90DF90CF90DB
:10092000BF90AF900C94930FDF91CF911F910F91D7
:10093000FF90EF90DF90CF90BF90AF9008950F930E
:100940001F93CF93DF93CDB7DEB7C258D1090FB64F
:10095000F894DEBF0FBECDBF8C016BE271E0CE011B
:1009600001960E941F19F801E256FF4F60817181C4
:10097000072E000C880B990B0E94231A20E030E010
:1009800040E251E40E947919AB01BC0122E0CE01A2
:100990008B599F4F0E940210F801E456FF4F60816F
:1009A0007181072E000C880B990B0E94231A20E0FE
:1009B00030E040E251E40E947919AB01BC0122E031
:1009C000CE0185599F4F0E940210F801E656FF4F55
:1009D000608171814AE0CE018F589F4F0E94D60FEF
:1009E000F801E856FF4F608171814AE0CE018358DB
:1009F0009F4F0E94D60FBE0163587F4FCE0189588A
:100A00009F4F0E94AA0F6BE371E0CE0189589F4F60
:100A10000E947310BE016F587F4F0E9460106CE3FC
:100A200071E00E947310BE0165597F4F0E946010F3
:100A30006CE371E00E947310BE016B597F4F0E94FE
:100A40006010BC01C8018E579F4F0E94930FCE01CA
:100A500089589F4F0E94D30ECE0183589F4F0E940A
:100A6000D30ECE018F589F4F0E94D30ECE018559D1
:100A70009F4F0E94D30ECE018B599F4F0E94D30EE1
:100A8000BE016F5F7F4FCE018B599F4F0E94410F78
:100A9000BE016B597F4FC80184589F4F0E94B30F0E
:100AA000CE018B599F4F0E94D30ECE57DF4F0FB60A
:100AB000F894DEBF0FBECDBFDF91CF911F910F9194
:100AC00008954F925F926F927F92AF92BF92CF92B2
:100AD000DF92EF92FF920F931F93CF93DF93CDB7E7
:100AE000DEB7CE5CD1090FB6F894DEBF0FBECDBF26
:100AF0006C015C0180E5A80EB11CF501E080F1807D
:100B0000028113813A9620813181032E000C440B1F
:100B1000550B329660817181072E000C880B990B62
:100B20000E9476032B013C01860108561F4FF801F5
:100B300071836083CB01770FAA0BBB0BF501808318
:100B40009183A283B3836EE371E0CE018B599F4FF3
:100B50000E941F195F924F9281E591E09F938F93BE
:100B6000CE0101965C019F938F930E945619BE019E
:100B70006B597F4FCE0187539F4F0E94410FBE019B
:100B800067537F4FC60184589F4F0E94B30FCE0119
:100B900087539F4F0E94D30EB501CE0187539F4FBD
:100BA0000E94410FBE0167537F4FC6018E579F4F72
:100BB0000E94B30FCE0187539F4F0E94D30EF801BE
:100BC00040815181CA01880F991F480F591F052E76
:100BD000000C660B770BC6010C960E9461150F90F6
:100BE0000F900F900F900F900F90C253DF4F0FB6E2
:100BF000F894DEBF0FBECDBFDF91CF911F910F9153
:100C0000FF90EF90DF90CF90BF90AF907F906F906C
:100C10005F904F9008954F925F926F927F92AF9244
:100C2000BF92CF92DF92EF92FF920F931F93CF93D9
:100C3000DF93CDB7DEB7CE5CD1090FB6F894DEBF37
:100C40000FBECDBF6C015C0180E5A80EB11CF501A3
:100C5000E080F180028113813E9620813181032E54
:100C6000000C440B550B329660817181072E000CED
:100C7000880B990B0E9476032B013C01F601E65686
:100C8000FF4F71836083CB01770FAA0BBB0BF5017C
:100C900080839183A283B3836BE571E0CE018B598E
:100CA0009F4F0E941F195F924F928CE691E09F9395
:100CB0008F938E010F5F1F4F1F930F930E94561942
:100CC000BE016B597F4FCE0187539F4F0E94410F4A
:100CD000BE0167537F4FC60184589F4F0E94B30FD8
:100CE000CE0187539F4F0E94D30EB801CE01875388
:100CF0009F4F0E94410FBE0167537F4FC6018E5721
:100D00009F4F0E94B30FCE0187539F4F0E94D30E77
:100D10000F900F900F900F900F900F90C253DF4FD6
:100D20000FB6F894DEBF0FBECDBFDF91CF911F91FC
:100D30000F91FF90EF90DF90CF90BF90AF907F909A
:100D40006F905F904F900895AF92BF92CF92DF92D5
:100D5000EF92FF920F931F93CF93DF93CDB7DEB740
:100D6000C057D1090FB6F894DEBF0FBECDBF6C01DE
:100D70005C0180E5A80EB11CF501E080F1800281E4
:100D80001381729620813181032E000C440B550B88
:100D9000329660817181072E000C880B990B0E949E
:100DA0007603860104561F4FF80171836083CB01DF
:100DB000770FAA0BBB0BF50180839183A283B383CA
:100DC00068E771E0CE0101960E941F19BE016F5FB6
:100DD0007F4FCE018B599F4F0E94410FBE016B592F
:100DE0007F4FC60184589F4F0E94B30FCE018B598D
:100DF0009F4F0E94D30EF80160817181072E000C75
:100E0000880B990B0E94231A20E030E040E251E465
:100E10000E947919AB01BC0122E0CE0185599F4F98
:100E20000E9402106DE871E0CE018B599F4F0E9425
:100E3000410FBE0165597F4FCE018B599F4F0E94D4
:100E4000601065E971E00E947310BC01C6018E5705
:100E50009F4F0E94930FCE018B599F4F0E94D30E3C
:100E6000CE0185599F4F0E94D30EC059DF4F0FB658
:100E7000F894DEBF0FBECDBFDF91CF911F910F91D0
:100E8000FF90EF90DF90CF90BF90AF900895AF921A
:100E9000BF92CF92DF92EF92FF920F931F93CF9367
:100EA000DF93CDB7DEB7C057D1090FB6F894DEBFD8
:100EB0000FBECDBF6C015C0180E5A80EB11CF50131
:100EC000E080F18002811381729620813181032EAE
:100ED000000C440B550B329660817181072E000C7B
:100EE000880B990B0E947603860102561F4FF8016A
:100EF00071836083CB01770FAA0BBB0BF501808355
:100F00009183A283B3836AE971E0CE0101960E94C6
:100F10001F19BE016F5F7F4FCE018B599F4F0E94FB
:100F2000410FBE016B597F4FC60184589F4F0E94ED
:100F3000B30FCE018B599F4F0E94D30EF8016081F1
:100F40007181072E000C880B990B0E94231A20E058
:100F500030E040E251E40E947919AB01BC0122E08B
:100F6000CE0185599F4F0E9402106EEA71E0CE01BA
:100F70008B599F4F0E94410FBE0165597F4FCE0193
:100F80008B599F4F0E94601065E971E00E947310B9
:100F9000BC01C6018E579F4F0E94930FCE018B5903
:100FA0009F4F0E94D30ECE0185599F4F0E94D30EB2
:100FB000C059DF4F0FB6F894DEBF0FBECDBFDF9133
:100FC000CF911F910F91FF90EF90DF90CF90BF9046
:100FD000AF900895AF92BF92CF92DF92EF92FF92BF
:100FE0000F931F93CF93DF93CDB7DEB7CE5CD109BC
:100FF0000FB6F894DEBF0FBECDBF6C015C0180E57B
:10100000A80EB11CF501E080F180028113817A966F
:101010002081318142815381AEE1B0E00E94942071
:101020009B01AC01349760817181828193810E9420
:101030007603162F072FF82EE92EF601E056FF4F04
:101040006083718382839383F501608371838283DC
:10105000938366EB71E0CE018B599F4F0E941F195D
:10106000EF92FF920F931F9387EC91E09F938F93E2
:101070008E010F5F1F4F1F930F930E945619BE01E1
:101080006B597F4FCE0187539F4F0E94410FBE0186
:1010900067537F4FC60184589F4F0E94B30FCE0104
:1010A00087539F4F0E94D30EB801CE0187539F4FA5
:1010B0000E94410FBE0167537F4FC6018E579F4F5D
:1010C0000E94B30FCE0187539F4F0E94D30E0FB6DD
:1010D000F894DEBF0FBECDBFC253DF4F0FB6F894FA
:1010E000DEBF0FBECDBFDF91CF911F910F91FF905B
:1010F000EF90DF90CF90BF90AF9008950F931F9324
:10110000CF93DF93CDB7DEB7CE5CD1090FB6F8949D
:10111000DEBF0FBECDBF8C0163ED71E0CE018B59F8
:101120009F4F0E941F196DE371E0CE0101960E944E
:101130001F19BE016B597F4FCE0187539F4F0E94ED
:10114000410FBE0167537F4FC80184589F4F0E94D3
:10115000B30FCE0187539F4F0E94D30EBE016F5F26
:101160007F4FCE0187539F4F0E94410FBE016753AF
:101170007F4FC8018E579F4F0E94B30FCE018753F8
:101180009F4F0E94D30EF801E05BFF4F1082118247
:1011900012821382C253DF4F0FB6F894DEBF0FBE28
:1011A000CDBFDF91CF911F910F9108950F931F93A2
:1011B000CF93DF93EC018C01085A1F4FF801808117
:1011C0009181892B19F4CE010E949F04F80180813E
:1011D0009181019719F4CE010E946105F801808187
:1011E0009181029719F4CE010E940B06F8018081CB
:1011F0009181039719F4CE010E94A406F801808121
:101200009181049719F4CE010E944707F80180816B
:101210009181059719F4CE010E94EA07F8018081B7
:101220009181069739F4CE01DF91CF911F910F91F3
:101230000C947E08DF91CF911F910F910895FC01CE
:10124000E85AFF4F2081318137FD04C02F5F3F4FA7
:1012500031832083208131812730310514F01182C0
:101260001082208131812130310539F4FC01E05BAD
:10127000FF4FDC01A856BF4F1DC02230310539F4A5
:10128000FC01E05BFF4FDC01A656BF4F13C02330CB
:10129000310539F4FC01E05BFF4FDC01A456BF4F80
:1012A00009C02430310569F4FC01E05BFF4FDC012B
:1012B000A256BF4F4D915C91052E000C660B770B2B
:1012C0000CC02530310569F4FC01E056FF4F408128
:1012D000518162817381E055F109408351836283BA
:1012E00073830C94D608EF92FF920F931F93CF93C2
:1012F000DF938C017C0188E9E80EF11CC0E0D0E0AE
:10130000F70161917F01CE010E9401212196CC302D
:10131000D105B1F768EE73E080E090E00E945911CA
:10132000F801E85AFF4F11821082C801DF91CF9176
:101330001F910F91FF90EF900C94D608CF93DF93FD
:10134000EC01CB010E94D90B8130910551F004973B
:1013500069F4CE010E94D608CE01DF91CF910C94A2
:101360007309CE01DF91CF910C941F09DF91CF91CA
:1013700008954F925F926F927F92AF92BF92CF92F9
:10138000DF92EF92FF920F931F93CF93DF93CDB72E
:10139000DEB72C970FB6F894DEBF0FBECDBF8C0121
:1013A00086960E94DD0B83E00E947012680124E59E
:1013B000C20ED11CF601918380830E9428112B015B
:1013C0003C01F801E85AFF4F80819181059721F493
:1013D00094E6E92EF12C03C0EE24E394F12C58019D
:1013E000F6E5AF0EB11CF60120813181F501808157
:1013F00091812817390741F184E00E947012F601AB
:1014000020813181F801E05BFF4FA701FF0C660BE3
:10141000770B8217930749F080819181A281B38174
:10142000840F951FA61FB71F08C080819181A281DC
:10143000B381841B950BA60BB70B80839183A2838A
:10144000B383C8010E94D6087801F8E7EF0EF11CBB
:10145000F70180819181A281B381A3019201281BB0
:10146000390B4A0B5B0B243631054105510520F140
:10147000B8016E577F4FCE0101960E94AA0FB801A6
:1014800064587F4FCE0107960E94AA0FAE014F5FAE
:101490005F4FBE01695F7F4FC8010E944C04CE01BF
:1014A00007960E94D30ECE0101960E94D30EF7013B
:1014B0004082518262827382F60180819181F501BE
:1014C000918380832C960FB6F894DEBF0FBECDBFFC
:1014D000DF91CF911F910F91FF90EF90DF90CF9010
:1014E000BF90AF907F906F905F904F90089580E095
:1014F00090E008950895FC011382128287EE91E036
:101500009183808364834187228780E8838708955D
:101510001F93CF93DF93EC01162F6C8180E693E04D
:101520000E943E138B85612F682B80E693E00E941A
:10153000F51280E693E0DF91CF911F910C945B133D
:10154000FC01138660E00C94880A0F931F93CF93DD
:101550008C01C62F60610E94880A81E090E00E94A1
:1015600095116C2F6F7EC8010E94880A82E390E07B
:10157000CF911F910F910C9495111F93CF93DF93EF
:10158000EC01162F0E94880A612FCE01DF91CF91C6
:101590001F910C94A50A0F931F93CF93DF938C0197
:1015A000D62FC42F62956F70642B0E94BD0A6D2FD9
:1015B0006F706C2BC801DF91CF911F910F910C942C
:1015C000BD0A40E00C94CB0A61E00E94E10A80ED84
:1015D00097E00C94951162E00E94E10A80ED97E09B
:1015E0000C949511CF93DF93CDB7DEB728970FB644
:1015F000F894DEBF0FBECDBF9C0188E0E6E0F1E0CD
:10160000DE01119601900D928A95E1F7F90180852E
:10161000841710F44FEF480FFE013196E40FF11DCF
:10162000E40FF11D9081690F6068C90128960FB61B
:10163000F894DEBF0FBECDBFDF91CF910C94E10ACD
:10164000FC016681262F246026836C600C94E10ADD
:1016500040E40E94CB0A80E090E00895CF93DF93AE
:10166000EC01423018F08D8188608D8348872223F9
:1016700029F0413019F48D8184608D8380E593ECED
:101680000E9495116B85CE010E94880A68EE73E076
:1016900080E090E00E94591163E0CE010E94BD0AF3
:1016A00084E991E10E94951163E0CE010E94BD0A98
:1016B00084E991E10E94951163E0CE010E94BD0A88
:1016C00086E990E00E94951162E0CE010E94BD0A79
:1016D0006D816062CE010E94E10A84E08E83CE01BA
:1016E0000E94200BCE010E94E40A82E08F8366E014
:1016F000CE010E94E10ACE01DF91CF910C94EB0A5A
:10170000CF93DF93EC0180E693E00E9434131D82B7
:1017100020E04A856985CE01DF91CF910C942E0B94
:101720000C94800BEF92FF920F931F93CF93DF9354
:101730001F92CDB7DEB77C01862FF7011186138685
:101740001286178A168A108E118E138E128E158E9F
:10175000148E178E168E11A210A213A212A215A219
:1017600014A217A216A211A610A66083158B048BD3
:10177000642F29830E9404122981422F50E0F7012F
:101780005683458381E0282730E0308727835483C0
:1017900043830F90DF91CF911F910F91FF90EF90B6
:1017A0000895FC0173A362A30895FC0175A364A3CB
:1017B0000895FC018285938508950F931F93CF931D
:1017C000DF93EC018B819C819A83898388810E94BD
:1017D00070129C838B8329813A816D817E814F8138
:1017E00058852617370791F48417950779F40E94D6
:1017F0002811688B798B8A8B9B8B188E29852F5F9C
:1018000029876C877D878E879F8758C02417350767
:1018100061F58617970709F0A7C00E94281128894B
:101820003989621B730B7F8B6E8B8C899D8968173E
:10183000790708F443C0EE8DFF8D309711F0CE018B
:101840000995EC8DFD8D309711F0CE010995E8A139
:10185000F9A1309711F0CE0109958E899F89883CB6
:10186000910560F181E0898F29C08417950761F5A2
:10187000888D811129C00E942811088919892A8917
:101880003B89AB01BC01401B510B620B730B8C8974
:101890009D89A0E0B0E0481759076A077B07A0F0D0
:1018A000EE8DFF8D309711F0CE010995EA8DFB8DFD
:1018B000309711F0CE01099581E0888FDF91CF91AB
:1018C0001F910F910C94CD102B813C818D819E81B5
:1018D0002817390799F70E9428110C851D852E8538
:1018E0003F85DC01CB01801B910BA20BB30B8D322A
:1018F0009140A105B10510F3998D8985992371F067
:10190000813051F484E090E09B878A87ECA1FDA1AF
:10191000309711F0CE010995198E20C08823F1F07F
:10192000823059F0833081F08130C1F481E090E061
:101930009B878A87EAA1FBA10DC082E090E09B878C
:101940008A87EEA1FFA106C083E090E09B878A878B
:10195000E8A5F9A5309711F0CE01099519861C86E6
:101960001D861E861F86AACF8217930709F0A6CF71
:101970007FCFFC01918D228D892F90E0805C9F4F5D
:10198000821B91098F7399270895FC01918D828D97
:10199000981731F0828DE80FF11D858D90E0089544
:1019A0008FEF9FEF0895FC01918D828D981761F064
:1019B000828DDF01A80FB11D5D968C91928D9F5F86
:1019C0009F73928F90E008958FEF9FEF0895FC0131
:1019D000538D448D252F30E0842F90E0821B930B94
:1019E000541710F0CF960895019708958BE49EE068
:1019F000892B49F080E090E0892B29F00E944B0E62
:101A000081110C9400000895FC01848DDF01A80F62
:101A1000B11DA35ABF4F2C91848D90E001968F7316
:101A20009927848FA689B7892C93A089B1898C9135
:101A300080648C93938D848D981306C00288F389FB
:101A4000E02D80818F7D80830895CF93DF93EC011B
:101A5000888D8823C9F0EA89FB89808185FD05C0CE
:101A6000A889B9898C9186FD0FC00FB607FCF5CF08
:101A7000808185FFF2CFA889B9898C9185FFEDCF50
:101A8000CE010E94040DE7CFDF91CF910895EF9230
:101A9000FF920F931F93CF93DF93EC0181E0888F28
:101AA0009B8D8C8D981305C0E889F989808185FD0F
:101AB00024C0F62E0B8D10E00F5F1F4F0F73112700
:101AC000E02E8C8DE8120CC00FB607FCFACFE88927
:101AD000F989808185FFF5CFCE010E94040DF1CFF9
:101AE0008B8DFE01E80FF11DE35AFF4FF0820B8F43
:101AF000EA89FB898081806207C0EE89FF89608363
:101B0000E889F98980818064808381E090E0DF91B9
:101B1000CF911F910F91FF90EF900895CF92DF9298
:101B2000EF92FF921F93CF93DF93EC016A017B0149
:101B3000122FE889F98982E080834115514E6105B1
:101B40007105B1F060E079E08DE390E0A7019601C6
:101B50000E944D20DA01C9010197A109B109B6958A
:101B6000A79597958795AC01411580E15807A8F096
:101B7000E889F989108260E874E88EE190E0A701B5
:101B800096010E944D20BA01A901415051096109F5
:101B900071097695679557954795EC85FD85508336
:101BA000EE85FF854083188EEC89FD891083EA89D4
:101BB000FB89808180618083EA89FB8980818860DC
:101BC0008083EA89FB89808180688083EA89FB8938
:101BD00080818F7D8083DF91CF911F91FF90EF9067
:101BE000DF90CF9008951F920F920FB60F9211249D
:101BF0002F938F939F93EF93FF93E091CA02F091FD
:101C0000CB028081E091D002F091D10282FD12C01E
:101C100090818091D3028F5F8F732091D4028217BD
:101C200051F0E091D302F0E0E654FD4F958F8093A0
:101C3000D30201C08081FF91EF919F918F912F91ED
:101C40000F900FBE0F901F9018951F920F920FB616
:101C50000F9211242F933F934F935F936F937F9332
:101C60008F939F93AF93BF93EF93FF938AEB92E091
:101C70000E94040DFF91EF91BF91AF919F918F91C1
:101C80007F916F915F914F913F912F910F900FBE78
:101C90000F901F9018958AEB92E00E94B90C21E0FA
:101CA000892B09F420E0822F0895EAEBF2E01382F9
:101CB000128288EE93E0A0E0B0E084839583A6834F
:101CC000B78383EF91E09183808385EC90E09587E3
:101CD000848784EC90E09787868780EC90E0918BF6
:101CE000808B81EC90E0938B828B82EC90E0958BE3
:101CF000848B86EC90E0978B868B118E128E138EE0
:101D0000148E0895CF92DF92EF92FF920F931F935C
:101D1000CF93DF936C017A018B01C0E0D0E0CE1548
:101D2000DF0589F0D8016D918D01D601ED91FC910F
:101D30000190F081E02DC6010995892B11F47E01F7
:101D400002C02196ECCFC701DF91CF911F910F9177
:101D5000FF90EF90DF90CF9008956115710579F0B5
:101D6000FB0101900020E9F73197AF01461B570BAB
:101D7000DC01ED91FC910280F381E02D099480E07B
:101D800090E00895DC01ED91FC91DB0114964D91FA
:101D90005C9115976D917C910280F381E02D0994FF
:101DA0000C94AD0E0895FC01808191810C94A817CC
:101DB000CF93DF93EC0188819981009711F00E9405
:101DC000A817198218821D821C821B821A82DF9139
:101DD000CF9108950F931F93CF93DF93EC018B0165
:101DE0006F5F7F4F888199810E944018009731F082
:101DF000998388831B830A8381E001C080E0DF919F
:101E0000CF911F910F910895CF93DF93EC018881BB
:101E10009981892B29F08A819B818617970760F425
:101E2000CE010E94EA0E882341F08C819D81892B8E
:101E300019F4E881F981108281E0DF91CF91089552
:101E4000EF92FF920F931F93CF93DF93EC017B01EF
:101E50008A01BA010E94040F811104C0CE010E94C0
:101E6000D80E07C01D830C83B701888199810E9419
:101E70001F19CE01DF91CF911F910F91FF90EF902D
:101E80000895FC011182108213821282158214823D
:101E90006115710551F0FB0101900020E9F73197C0
:101EA000AF01461B570B0C94200F08950F931F93FF
:101EB000CF93DF938C01EB01FC018081918100972E
:101EC000D1F0688179816115710599F022ED3EE0CC
:101ED000232B79F0428153812C813D814217530796
:101EE00040F00E941F198C819D81F80195838483A5
:101EF00013C00E94A81788819981F801918380837B
:101F00008A819B81938382838C819D819583848345
:101F1000198218821B821A821D821C82DF91CF9146
:101F20001F910F910895CF93DF93EC01FB0186176A
:101F3000970761F0608171816115710529F0448115
:101F400055810E94200F02C00E94D80ECE01DF9161
:101F5000CF910895FC0111821082138212821582A2
:101F600014820C94930FCF93DF93EC01861797079D
:101F700011F00E94560FCE01DF91CF910895CF93BB
:101F8000DF93EC016115710559F0FB010190002010
:101F9000E9F73197AF01461B570B0E94200F02C093
:101FA0000E94D80ECE01DF91CF9108950F931F9319
:101FB000CF93DF93CDB7DEB762970FB6F894DEBF4D
:101FC0000FBECDBF8C01CB01F801118210821382AC
:101FD00012821582148250E0BE016F5F7F4F0E9413
:101FE0002619BE016F5F7F4FC8010E94BF0F629626
:101FF0000FB6F894DEBF0FBECDBFDF91CF911F911A
:102000000F910895EF92FF920F931F93CF93DF9359
:10201000CDB7DEB7A1970FB6F894DEBF0FBECDBF28
:102020007C01CB01BA01F701118210821382128266
:102030001582148242E0420F8E010F5F1F4F0E94F3
:10204000F316BC01C7010E94BF0FA1960FB6F8940A
:10205000DEBF0FBECDBFDF91CF911F910F91FF90DB
:10206000EF900895EF92FF920F931F93CF93DF931A
:10207000FC01248135816115710511F480E019C0DE
:1020800041155105A9F07B01EC018A01020F131FD4
:10209000B8010E94040F882389F3288139818C813B
:1020A0009D81B701820F931F0E941F191D830C830E
:1020B00081E0DF91CF911F910F91FF90EF900895F4
:1020C000CF93DF93EC01FB014481558160817181E5
:1020D0000E943210811103C0CE010E94D80ECE01A1
:1020E000DF91CF910895CF93DF93EC0161157105D6
:1020F00061F0FB0101900020E9F73197AF01461B29
:10210000570B0E943210811103C0CE010E94D80EDD
:10211000CE01DF91CF910895CF93DF93DC01ED9154
:10212000FC91EB01A881B981309711F01097C9F4A7
:10213000109759F0EB012C813D81232B31F08C91CC
:1021400090E091958195910914C0309781F0DC0160
:1021500014968D919C911597892B49F0808190E080
:1021600008C0BD01CF01DF91CF910C94161980E01A
:1021700090E0DF91CF910895FC0144815581FB01EE
:10218000248135814217530729F40E948C1021E0E5
:10219000892B09F020E0822F0895089508950E9468
:1021A000A0110E94CE100E941B01C6EFDCE00E942D
:1021B000EC012097E1F30E94F60CF9CF1F920F92E9
:1021C0000FB60F9211242F933F938F939F93AF934A
:1021D000BF938091580390915903A0915A03B091F5
:1021E0005B033091570323E0230F2D3720F4019632
:1021F000A11DB11D05C026E8230F0296A11DB11D2A
:10220000209357038093580390935903A0935A0344
:10221000B0935B0380915C0390915D03A0915E039A
:10222000B0915F030196A11DB11D80935C03909353
:102230005D03A0935E03B0935F03BF91AF919F9145
:102240008F913F912F910F900FBE0F901F90189577
:102250002FB7F894609158037091590380915A03F5
:1022600090915B032FBF08953FB7F89480915C0372
:1022700090915D03A0915E03B0915F0326B5A89B8A
:1022800005C02F3F19F00196A11DB11D3FBFBA2F08
:10229000A92F982F8827820F911DA11DB11DBC0168
:1022A000CD0142E0660F771F881F991F4A95D1F72D
:1022B00008958F929F92AF92BF92CF92DF92EF924A
:1022C000FF926B017C010E9434114B015C01C1142F
:1022D000D104E104F10401F10E94CD100E943411F7
:1022E000DC01CB0188199909AA09BB09883E9340F2
:1022F000A105B10560F321E0C21AD108E108F10897
:1023000088EE880E83E0981EA11CB11CC114D10474
:10231000E104F10419F7DBCFFF90EF90DF90CF904D
:10232000BF90AF909F908F9008958230910538F0C4
:10233000880F991F880F991F05970197F1F7089546
:10234000789484B5826084BD84B5816084BD85B590
:10235000826085BD85B5816085BDEEE6F0E0808157
:1023600081608083E1E8F0E0108280818260808378
:10237000808181608083E0E8F0E0808181608083FB
:10238000E1EBF0E0808184608083E0EBF0E080812D
:1023900081608083EAE7F0E08081846080838081CF
:1023A0008260808380818160808380818068808377
:1023B0001092C1000895833081F028F4813099F0A3
:1023C0008230A1F008958730A9F08830B9F08430C8
:1023D000D1F4809180008F7D03C0809180008F7741
:1023E00080938000089584B58F7702C084B58F7D77
:1023F00084BD08958091B0008F7703C08091B000B4
:102400008F7D8093B0000895CF93DF9390E0FC011F
:10241000E657FE4F2491FC01E256FE4F849188233B
:1024200061F190E0880F991FFC01EA53FE4FC591BE
:10243000D491FC01E454FE4FA591B491611109C0FF
:102440009FB7F8948881209582238883EC912E236E
:102450000BC0623061F49FB7F8943881822F809569
:1024600083238883EC912E2B2C939FBF06C08FB7BC
:10247000F894E8812E2B28838FBFDF91CF910895A8
:102480001F93CF93DF93282F30E0F901EA58FE4FD6
:102490008491F901E657FE4FD491F901E256FE4FBF
:1024A000C491CC23C9F0162F81110E94DB11EC2FAF
:1024B000F0E0EE0FFF1FE454FE4FA591B4918FB7EB
:1024C000F894111105C09C91ED2FE095E92302C00D
:1024D000EC91ED2BEC938FBFDF91CF911F9108957D
:1024E000CF93DF93282F30E0F901EA58FE4F849113
:1024F000F901E657FE4FD491F901E256FE4FC4911F
:10250000CC2391F081110E94DB11EC2FF0E0EE0F53
:10251000FF1FEE54FE4FA591B491EC91ED2381E0A5
:1025200090E021F480E002C080E090E0DF91CF9164
:1025300008958091900390E020919103821B91096E
:1025400008959091910380919003981750F4E92F8A
:10255000F0E0EE56FC4F208130E09F5F90939103B6
:1025600002C02FEF3FEFC9010895E09191038091E0
:102570009003E81730F4F0E0EE56FC4F808190E0D5
:1025800008958FEF9FEF08950895CF92DF92EF9215
:10259000FF920F931F93CF93DF937C01262F972FEA
:1025A0008A0180916C03882391F0C62FD72F6E018A
:1025B000C40ED51ECC15DD0571F06991D701ED91E2
:1025C000FC910190F081E02DC7010995F3CF642FB4
:1025D000822F0E94D613C801DF91CF911F910F91D6
:1025E000FF90EF90DF90CF900895CF93DF931F92ED
:1025F000CDB7DEB7698320916C032223D1F02091FF
:102600006D03203240F021E030E0FC01338322836F
:1026100080E090E015C080916E03E82FF0E0E15972
:10262000FC4F998190838F5F80936E0380936D033D
:1026300005C061E0CE0101960E94D61381E090E0D2
:102640000F90DF91CF910895FC011382128288EEE2
:1026500093E0A0E0B0E084839583A683B78385E010
:1026600092E09183808308951092910310929003D9
:1026700010926E0310926D030C94621381E08093AC
:102680006C0360938F0310926E0310926D03089594
:102690000F93062F21E040916D036FE673E0809168
:1026A0008F030E94801310926E0310926D0310929C
:1026B0006C030F91089561E00C94481380E693E059
:1026C0000C94241310921F0481E080931D04109237
:1026D0001C0461E082E10E94401261E083E10E94FB
:1026E0004012E9EBF0E080818E7F808380818D7FD6
:1026F000808388E48093B80085E48093BC000895CB
:102700000F93413208F04AC090911F049111FCCF01
:1027100032E030931F0400931D043FEF3093B20367
:102720001092F7034093F603FB0168EF73E0DB01BF
:102730003A2F361B341718F431913D93F9CF10928C
:102740001E0430911E04880F832B80931E048091F9
:102750001C04813061F410921C0480911E0480934B
:10276000BB008091BC0083FDF8CF85EC01C085EEF5
:102770008093BC00222321F080911F048230D1F38A
:102780008091B2038F3F79F08091B203803241F0A3
:102790008091B203803331F094E005C091E003C032
:1027A00092E001C093E0892F0F9108954091D403E6
:1027B000262F30E0240F311D21323105DCF4209129
:1027C0001F042430C9F4FC0180E090E0861758F41F
:1027D0003091D4032191DC01AA52BC4FA30FB11D4B
:1027E0002C930196F3CF8091D403680F6093D403A8
:1027F00080E0089581E0089582E0089585ED80935A
:10280000BC008091BC0084FDFCCF10921F04089591
:1028100085EC8093BC0010921F0408951F920F92C4
:102820000FB60F9211242F933F934F935F936F93A3
:102830007F938F939F93AF93BF93EF93FF93809179
:10284000B900887F803609F49EC078F5883209F493
:102850005DC090F4803109F456C038F4882309F43F
:10286000F5C0883009F44FC0F5C0883109F44EC076
:10287000803209F45FC0EEC0803409F46AC058F4B5
:10288000803309F457C0883309F0E4C08093B20361
:102890000E940814DFC0803509F44FC0883509F460
:1028A0005DC0883409F0D6C0D3C0883909F4C4C0EB
:1028B000A8F4883709F467C038F4883609F463C08F
:1028C000803709F460C0C6C0883809F4B5C08039C3
:1028D00009F45FC0803809F0BDC05BC0803B09F4DB
:1028E00083C038F4803A09F466C0883A09F47CC0A1
:1028F000B1C0803C09F4A4C0883C09F4A1C0883B65
:1029000009F487C0A7C080911E0410C09091F703FE
:102910008091F603981770F5E091F70381E08E0F30
:102920008093F703F0E0E850FC4F80818093BB0078
:1029300085EC83C08093B2038BC0E091F70381E004
:102940008E0F8093F7038091BB00F0E0E850FC4FBE
:1029500080839091F7038091F6036BC0E091F703B9
:1029600081E08E0F8093F7038091BB00F0E0E85088
:10297000FC4F808380911D0481116AC081E08093A7
:102980001C0484EA5EC083E080931F041092B303AA
:10299000CFCF8091B303803208F04EC0E091B303F3
:1029A00081E08E0F8093B3038091BB00F0E0EC5484
:1029B000FC4F8083BDCF0E9408148091B303803206
:1029C00030F4E091B303F0E0EC54FC4F10826091DE
:1029D000B30370E0E0911804F091190484EB93E0E4
:1029E00009951092B30336C084E080931F041092BF
:1029F000D5031092D403E0911A04F0911B040995B9
:102A00008091D403811105C081E08093D40310929A
:102A1000D603E091D50381E08E0F8093D503F0E0DB
:102A2000EA52FC4F80818093BB009091D503809146
:102A3000D403981708F47CCF85E88093BC000AC0C3
:102A400085EC8093BC0010921F0404C01092B20366
:102A50000E94FE13FF91EF91BF91AF919F918F91D3
:102A60007F916F915F914F913F912F910F900FBE8A
:102A70000F901F901895CF93DF93EC01842F1B8646
:102A80001A86198218821E8A1F8A188E198E7F83D1
:102A90006E834C875D873F872E8761E00E9404121A
:102AA00061E08E850E940412198A188A1B8A1A8A8C
:102AB0001D8A1C8A82E090E099878887DF91CF91F8
:102AC0000895CF92DF92EF92FF920F931F93CF93CF
:102AD000DF93EC016A017B010E811F819801110FC8
:102AE000440B550B60E077E883E993E00E946F2088
:102AF000CA01B901A70196010E946F202A833B8376
:102B00004C835D83DF91CF911F910F91FF90EF90E8
:102B1000DF90CF9008950F931F93CF93DF93EC0135
:102B20008B01888599850297F1F46130710569F010
:102B300024F4672BC1F460E009C06230710559F0DC
:102B40006330710581F460E007C061E08C850E940C
:102B5000401261E005C061E08C850E94401260E097
:102B60008E850E944012888599850497B9F50130B9
:102B70001105B1F04CF40115110581F561E08C856A
:102B80000E94401260E011C002301105B9F003301C
:102B9000110521F561E08C850E94401260E013C0B0
:102BA00060E08C850E94401261E08E850E94401298
:102BB00061E088890E94401260E00DC060E08C8571
:102BC0000E94401261E08E850E94401260E0888978
:102BD0000E94401261E08A890E944012888599858E
:102BE000059709F073C00A30110508F06FC0F801AD
:102BF000EC5CFF4F0C948E2060E08C850E944012AC
:102C000061E051C060E08C850E94401261E08E85D9
:102C10000E94401260E04BC060E08C850E94401230
:102C200061E08E850E94401260E088890E94401217
:102C300061E041C060E001C061E08C850E9440120B
:102C400061E005C061E08C850E94401260E08E85E5
:102C50000E94401260E009C061E08C850E94401231
:102C600060E08E850E94401261E088890E944012D7
:102C700061E00DC061E08C850E94401260E08E85AD
:102C80000E94401261E088890E94401260E08A89B7
:102C90000E94401260E013C061E001C060E08C85DA
:102CA0000E94401260E08E850E94401261E0888997
:102CB0000E94401260E08A890E94401261E08C8983
:102CC000DF91CF911F910F910C944012DF91CF9122
:102CD0001F910F9108954F925F926F927F928F9202
:102CE0009F92AF92BF92CF92DF92EF92FF920F939B
:102CF0001F93CF93DF93EC018B0177FF04C0002774
:102D00001127061B170B161617062CF481E090E00E
:102D10009983888304C0672B11F01982188284E09C
:102D2000E82EF12C9AE0C92ED12C0115110509F4D9
:102D300049C00E9434118E889F88A88CB98C2B01C1
:102D40003C01481859086A087B088A809B80AC803F
:102D5000BD80481459046A047B0438F36E8B7F8B62
:102D6000888F998F288139818A859B85213031050B
:102D700059F401969B878A872E813F81821793079A
:102D800071F41B861A860BC0892B21F48E819F81DA
:102D90009B878A878A859B8501979B878A870150B5
:102DA0001109288539858A859B852530310511F4DF
:102DB000B60101C0B7010E943920BC01CE010E94BA
:102DC0008B15B3CFDF91CF911F910F91FF90EF90B3
:102DD000DF90CF90BF90AF909F908F907F906F903B
:102DE0005F904F900895EF920F931F93CF93DF93CF
:102DF000E80147FD02C034E001C034E1E42F440F94
:102E0000FF0BF7FF03C0F195E195F109E32E022FC7
:102E10002E2FAE010E94171DCE01DF91CF911F9181
:102E20000F91EF900895CF93DF938230910510F4C6
:102E300082E090E0E0912204F091230420E030E071
:102E4000C0E0D0E0309711F1408151814817590717
:102E5000C0F04817590761F482819381209719F0D7
:102E60009B838A832BC0909323048093220426C0E3
:102E70002115310519F04217530718F49A01BE01C4
:102E8000DF01EF010280F381E02DDCCF2115310558
:102E900009F1281B390B2430310590F412968D91DD
:102EA0009C9113976115710521F0FB019383828337
:102EB00004C09093230480932204FD01329644C001
:102EC000FD01E20FF31F81939193225031092D935D
:102ED0003C933AC02091200430912104232B41F4EB
:102EE00020910201309103013093210420932004AA
:102EF00020910001309101012115310541F42DB7D8
:102F00003EB74091040150910501241B350BE0911F
:102F10002004F0912104E217F307A0F42E1B3F0BCD
:102F20002817390778F0AC014E5F5F4F241735073B
:102F300048F04E0F5F1F509321044093200481936B
:102F4000919302C0E0E0F0E0CF01DF91CF910895CE
:102F50000F931F93CF93DF93009709F48CC0FC016C
:102F600032971382128200912204109123040115DA
:102F7000110581F420813181820F931F209120045B
:102F8000309121042817390779F5F0932104E09353
:102F9000200471C0D80140E050E0AE17BF0750F4E4
:102FA00012962D913C911397AD012115310509F130
:102FB000D901F3CF9D01DA013383228360817181CE
:102FC000860F971F8217930769F4EC0128813981D6
:102FD000260F371F2E5F3F4F318320838A819B81CD
:102FE00093838283452B29F4F0932304E0932204F6
:102FF00042C01396FC93EE931297ED0149915991BB
:103000009E01240F351FE217F30771F4808191812F
:10301000840F951F029611969C938E9382819381C3
:1030200013969C938E931297E0E0F0E0D8011296ED
:103030008D919C911397009719F0F8018C01F6CFB0
:103040008D919C9198012E5F3F4F820F931F20918D
:103050002004309121042817390769F4309729F4A6
:10306000109223041092220402C013821282109341
:10307000210400932004DF91CF911F910F910895B7
:10308000A0E0B0E0E6E4F8E10C94A320EC010097A6
:1030900021F4CB010E941317B8C0FC01E60FF71F03
:1030A0009C0122503109E217F30708F4ACC0D901A2
:1030B0000D911C91119706171707B0F005301105F7
:1030C00008F49FC0C80104978617970708F499C0B1
:1030D00002501109061B170B019311936D937C93FA
:1030E000CF010E94A8178DC05B01A01AB10A4C0144
:1030F000800E911EA0912204B091230440E050E084
:10310000E12CF12C109709F44AC0A815B905D1F5A6
:103110006D907C901197630182E0C80ED11CCA1497
:10312000DB0480F1A3014A195B096A0182E0C80E41
:10313000D11C1296BC9012971396AC91B5E0CB16A9
:10314000D10440F0B282A38351834083D9016D93AF
:103150007C930AC00E5F1F4FC301800F911FF901BE
:1031600091838083EB2DFA2FE114F10431F0D70124
:103170001396FC93EE93129744C0F0932304E093CC
:1031800022043FC08D919C9111974817590708F46C
:10319000AC017D0112960D90BC91A02DB3CF809112
:1031A00020049091210488159905E1F446175707EA
:1031B000C8F48091000190910101009741F48DB70E
:1031C0009EB74091040150910501841B950BE817AF
:1031D000F907C8F4F0932104E0932004F901718306
:1031E00060830FC0CB010E9413177C01009759F038
:1031F000A801BE010E940D19CE010E94A817C701A7
:1032000004C0CE0102C080E090E0CDB7DEB7EEE0B2
:103210000C94BF20F8940C940F21FB01DC0102C038
:1032200001900D9241505040D8F70895FB01DC0108
:103230008D91019080190110D9F3990B0895FB012C
:10324000DC0101900D920020E1F70895453251050F
:1032500020F4423010F00C943119FB011082CB01A4
:103260000895BB274A3031F4992322F4BDE29095AA
:1032700081959F4F0C943D19BB27FB015527AA2729
:10328000880F991FAA1FA41710F0A41B83955051F3
:10329000B9F7A05DAA3308F0A95DA193009779F76B
:1032A000B111B1931192CB010C94931FAEE0B0E039
:1032B000ECE5F9E10C94AD200D891E8986E08C8344
:1032C0001A8309838FEF9FE79E838D83AE01475E4C
:1032D0005F4F6F89788DCE0101960E94451B2F812B
:1032E0003885F801E20FF31F10822E96E4E00C946B
:1032F000C9200E948D190C94991A0E94921A58F0B4
:103300000E948B1A40F029F45F3F29F00C94821A36
:1033100051110C94CD1A0C94881A0E94AA1A68F3C1
:103320009923B1F3552391F3951B550BBB27AA277E
:1033300062177307840738F09F5F5F4F220F331FB8
:10334000441FAA1FA9F335D00E2E3AF0E0E832D080
:1033500091505040E695001CCAF72BD0FE2F29D083
:10336000660F771F881FBB1F261737074807AB0755
:10337000B0E809F0BB0B802DBF01FF2793585F4FCA
:103380003AF09E3F510578F00C94821A0C94CD1AB5
:103390005F3FE4F3983ED4F3869577956795B795AC
:1033A000F7959F5FC9F7880F911D9695879597F9B7
:1033B0000895E1E0660F771F881FBB1F6217730730
:1033C0008407BA0720F0621B730B840BBA0BEE1F45
:1033D00088F7E09508950E94F2196894B1110C9451
:1033E000CD1A08950E94B21A88F09F5798F0B92F0D
:1033F0009927B751B0F0E1F0660F771F881F991F2A
:103400001AF0BA95C9F714C0B13091F00E94CC1AE5
:10341000B1E008950C94CC1A672F782F8827B85FF5
:1034200039F0B93FCCF3869577956795B395D9F781
:103430003EF490958095709561957F4F8F4F9F4F8B
:103440000895E89409C097FB3EF490958095709597
:1034500061957F4F8F4F9F4F9923A9F0F92F96E9E0
:10346000BB279395F695879577956795B795F11155
:10347000F8CFFAF4BB0F11F460FF1BC06F5F7F4FF2
:103480008F4F9F4F16C0882311F096E911C0772304
:1034900021F09EE8872F762F05C0662371F096E80D
:1034A000862F70E060E02AF09A95660F771F881FDC
:1034B000DAF7880F9695879597F90895990F000880
:1034C000550FAA0BE0E8FEEF16161706E807F907F6
:1034D000C0F012161306E407F50798F0621B730B91
:1034E000840B950B39F40A2661F0232B242B252B12
:1034F00021F408950A2609F4A140A6958FEF811DB5
:10350000811D089597F99F6780E870E060E0089555
:103510009FEF80EC089500240A94161617061806EB
:103520000906089500240A941216130614060506C7
:103530000895092E0394000C11F4882352F0BB0F58
:1035400040F4BF2B11F460FF04C06F5F7F4F8F4FBB
:103550009F4F089557FD9058440F551F59F05F3FF6
:1035600071F04795880F97FB991F61F09F3F79F0A5
:1035700087950895121613061406551FF2CF469527
:10358000F1DF08C0161617061806991FF1CF8695A9
:103590007105610508940895E894BB27662777278D
:1035A000CB0197F908950E945E1A08F48FEF0895F1
:1035B0000E94EB1A0C94991A0E948B1A38F00E9400
:1035C000921A20F0952311F00C94821A0C94881A08
:1035D00011240C94CD1A0E94AA1A70F3959FC1F37E
:1035E000950F50E0551F629FF001729FBB27F00DB1
:1035F000B11D639FAA27F00DB11DAA1F649F662706
:10360000B00DA11D661F829F2227B00DA11D621F54
:10361000739FB00DA11D621F839FA00D611D221F0E
:10362000749F3327A00D611D231F849F600D211DF2
:10363000822F762F6A2F11249F5750409AF0F1F075
:1036400088234AF0EE0FFF1FBB1F661F771F881FDE
:1036500091505040A9F79E3F510580F00C94821A7A
:103660000C94CD1A5F3FE4F3983ED4F3869577959A
:103670006795B795F795E7959F5FC1F7FE2B880F84
:10368000911D9695879597F90895ACE0B0E0EBE42D
:10369000FBE10C949F207C016B018A01FC011782E5
:1036A0001682838181FFBDC1CE0101964C01F701D5
:1036B0009381F60193FD859193FF81916F0188239A
:1036C00009F4ABC1853239F493FD859193FF819163
:1036D0006F01853229F4B70190E00E94A31FE7CF64
:1036E000512C312C20E02032A0F48B3269F030F4E0
:1036F000803259F0833269F420612CC08D3239F068
:10370000803339F4216026C02260246023C0286001
:1037100021C027FD27C030ED380F3A3078F426FF5E
:1037200006C0FAE05F9E300D1124532E13C08AE0CC
:10373000389E300D1124332E20620CC08E3221F4BD
:1037400026FD6BC1206406C08C3611F4206802C0CF
:10375000883641F4F60193FD859193FF81916F01C5
:103760008111C1CF982F9F7D9554933028F40C5F21
:103770001F4FFFE3F9830DC0833631F0833771F0BB
:10378000833509F05BC022C0F801808189830E5F18
:103790001F4F44244394512C540115C03801F2E0CA
:1037A0006F0E711CF801A080B18026FF03C0652D4B
:1037B00070E002C06FEF7FEFC5012C870E94881F69
:1037C0002C0183012C852F77222E17C03801F2E0BF
:1037D0006F0E711CF801A080B18026FF03C0652D1B
:1037E00070E002C06FEF7FEFC5012C870E947D1F44
:1037F0002C012C852068222E830123FC1BC0832DE5
:1038000090E048165906B0F4B70180E290E00E94BB
:10381000A31F3A94F4CFF50127FC859127FE8191EF
:103820005F01B70190E00E94A31F31103A94F1E0CC
:103830004F1A51084114510471F7E5C0843611F054
:10384000893639F5F80127FF07C0608171818281CF
:1038500093810C5F1F4F08C060817181072E000C9F
:10386000880B990B0E5F1F4F2F76722E97FF09C0A2
:1038700090958095709561957F4F8F4F9F4F2068F1
:10388000722E2AE030E0A4010E94DB1FA82EA818A7
:1038900044C0853729F42F7EB22E2AE030E025C0BF
:1038A000F22FF97FBF2E8F36C1F018F4883579F0EA
:1038B000B4C0803719F0883721F0AFC02F2F2061B6
:1038C000B22EB4FE0DC08B2D8460B82E09C024FF2B
:1038D0000AC09F2F9660B92E06C028E030E005C0D0
:1038E00020E130E002C020E132E0F801B7FE07C07D
:1038F00060817181828193810C5F1F4F06C060815E
:10390000718180E090E00E5F1F4FA4010E94DB1FD9
:10391000A82EA818FB2DFF777F2E76FE0BC0372D23
:103920003E7FA51450F474FE0AC072FC08C0372D07
:103930003E7E05C0BA2C372D03C0BA2C01C0B52C71
:1039400034FF0DC0FE01EA0DF11D8081803311F4BA
:10395000397E09C032FF06C0B394B39404C0832FEC
:10396000867809F0B39433FD13C030FF06C05A2C9B
:10397000B31418F4530C5B18B32CB31468F4B701E8
:1039800080E290E03C870E94A31FB3943C85F5CF72
:10399000B31410F43B1801C0312C34FF12C0B7012E
:1039A00080E390E03C870E94A31F3C8532FF17C054
:1039B00031FD03C088E790E002C088E590E0B701E0
:1039C0000CC0832F867859F031FF02C08BE201C012
:1039D00080E237FD8DE2B70190E00E94A31FA5149D
:1039E00038F4B70180E390E00E94A31F5A94F7CF08
:1039F000AA94F401EA0DF11D8081B70190E00E94C4
:103A0000A31FA110F5CF332009F451CEB70180E2F6
:103A100090E00E94A31F3A94F6CFF7018681978128
:103A200002C08FEF9FEF2C96E2E10C94BB204F92E7
:103A30005F926F927F929F92AF92BF92CF92DF92EE
:103A4000EF92FF920F931F93CF93DF93CDB7DEB723
:103A500029970FB6F894DEBF0FBECDBF6A01122FB3
:103A6000B02E2BE3201720F0FF24F394F00E02C0B9
:103A7000BCE3FB2E0F2D27E0AE014F5F5F4F0E948E
:103A8000A51EAC018981982F9970913031F0E1FC2D
:103A900006C0E0FE06C090E205C09DE203C09BE2C6
:103AA00001C090E0EE2DE07183FF3CC0911102C097
:103AB00083E001C084E0811718F4212F281B01C086
:103AC00020E0E1110BC0F601822F30E2882319F0CB
:103AD00031938150FBCFC20ED11C20E0992329F0F5
:103AE000D6019C93F60131966F01C6010396E2FE62
:103AF0000AC03EE4D6013C9341E411964C931197E1
:103B000012963C9306C03EE6F601308341E64183BF
:103B10003283FC01322F40E2332309F442C0419347
:103B20003150FACF82FF44C0911102C083E001C03E
:103B300084E0811718F4212F281B01C020E0E11137
:103B40000BC0F601822F30E2882319F031938150A7
:103B5000FBCFC20ED11C20E0992329F0D6019C9303
:103B6000F60131966F01C6010396E2FE0BC039E4FF
:103B7000D6013C933EE411963C93119736E412969D
:103B80003C9307C039E6F60130833EE6318336E6E2
:103B90003283FC01322F40E2332319F0419331503C
:103BA000FBCFFC01E20FF11D10828EEF9FEFB7C03B
:103BB000F1E0911101C0F0E06F2F70E014161506CE
:103BC00024F49A012F5F3F4F02C021E030E0260F1E
:103BD000371FBB2029F06B2D70E06F5F7F4F02C055
:103BE00060E070E0260F371F612F70E0261737075F
:103BF0001CF4121B212F01C020E03E2D387159F416
:103C0000D601322F60E2332319F06D933150FBCF90
:103C1000C20ED11C20E0FF2331F0D6019C93B601E7
:103C20006F5F7F4F6B01E1110BC0F601922F30E304
:103C3000992319F031939150FBCFC20ED11C20E093
:103C40009F2D940F3A81782F7071A72E84FF03C0A7
:103C5000313309F49150191624F4993018F098E092
:103C600001C091E0E42F852F57FF02C0E0E080E023
:103C70006E2F782FE0E0F0E0AEE29A2E3A01691A5A
:103C800071082A01461A570A0B2D10E0119501956B
:103C900011096F3F8FEF780729F4D6019C92C60176
:103CA00001966C014617570784F0661677066CF488
:103CB0007F01E40CF51CA1E0B0E0AC0FBD1FEA0EE3
:103CC000FB1ED7011196BC9002C090E3B92E615043
:103CD00071093196C60101967C016017710724F0C5
:103CE000D601BC926C01D5CF6417750741F4363309
:103CF00020F4353321F4A11002C081E3B82EF6017F
:103D0000B082F701822F90E2882319F091938150BD
:103D1000FBCFF701E20FF11D108280E090E02996C1
:103D20000FB6F894DEBF0FBECDBFDF91CF911F91CC
:103D30000F91FF90EF90DF90CF90BF90AF909F904A
:103D40007F906F905F904F900895283008F027E0A3
:103D50003327DA01990F311D87FD916000966105C7
:103D6000710539F432602E5F3D9330E32A95E1F717
:103D700008959F3F30F080387105610509F03C5F80
:103D80003C5F3D93913008F08068911DDF93CF93A5
:103D90001F930F93FF92EF92192F987F9695E92F1B
:103DA00096959695E90FFF27EA52FF4F99273327FB
:103DB000EE24FF24A701E70105900894079428F456
:103DC000360FE71EF81E491F511D660F771F881F0B
:103DD000991F0694A1F70590079428F4E70EF81EA2
:103DE000491F561FC11D770F881F991F661F069414
:103DF000A1F70590079428F4F80E491F561FC71F16
:103E0000D11D880F991F661F771F0694A1F7059093
:103E1000079420F4490F561FC71FD81F990F661F1C
:103E2000771F881F0694A9F784911095177041F0A9
:103E3000D695C79557954795F794E7941A95C1F786
:103E4000ECE7F0E0689415901591359165919591A6
:103E500005907FE27395E118F10A430B560BC90BED
:103E6000D009C0F7E10CF11E431F561FC91FD01D1A
:103E70007EF4703311F48A95E6CFE894015030F067
:103E8000080F0AF40027021708F4202F2395022FA9
:103E90007A3328F079E37D932A95E9F710C07D9372
:103EA0002A9589F6069497956795379517951794EF
:103EB000E118F10A430B560BC90BD00998F0239572
:103EC0007E9173957A3308F070E37C932013B8F7F2
:103ED0007E9170617D9330F0839571E37D9370E303
:103EE0002A95E1F71124EF90FF900F911F91CF9148
:103EF000DF91992787FD90950895FC010590615009
:103F000070400110D8F7809590958E0F9F1F0895EF
:103F1000FC016150704001900110D8F78095909598
:103F20008E0F9F1F0895DC01FC01672F719177238D
:103F3000E1F7329704C07C916D9370836291AE1764
:103F4000BF07C8F308950F931F93CF93DF93FB012F
:103F5000238121FD03C08FEF9FEF28C022FF16C0F1
:103F600046815781248135814217530744F4A0814B
:103F7000B1819D012F5F3F4F318320838C93268138
:103F800037812F5F3F4F3783268310C0EB01092F06
:103F9000182F0084F185E02D0995892BE1F68E819B
:103FA0009F8101969F838E83812F902FDF91CF91E8
:103FB0001F910F910895FA01AA27283051F120315D
:103FC00081F1E8946F936E7F6E5F7F4F8F4F9F4FAD
:103FD000AF4FB1E03ED0B4E03CD0670F781F891FEF
:103FE0009A1FA11D680F791F8A1F911DA11D6A0FBD
:103FF000711D811D911DA11D20D009F468943F9170
:104000002AE0269F11243019305D3193DEF6CF016E
:104010000895462F4770405D4193B3E00FD0C9F734
:10402000F6CF462F4F70405D4A3318F0495D31FDA1
:104030004052419302D0A9F7EACFB4E0A6959795F4
:10404000879577956795BA95C9F7009761057105CA
:1040500008959B01AC010A2E069457954795379514
:104060002795BA95C9F7620F731F841F951FA01D6E
:10407000089597FB072E16F4009407D077FD09D01A
:104080000E94D62007FC05D03EF4909581959F4F65
:104090000895709561957F4F0895A1E21A2EAA1B8D
:1040A000BB1BFD010DC0AA1FBB1FEE1FFF1FA217E8
:1040B000B307E407F50720F0A21BB30BE40BF50BE5
:1040C000661F771F881F991F1A9469F7609570956E
:1040D000809590959B01AC01BD01CF010895052EFF
:1040E00097FB1EF400940E94862057FD07D00E9483
:1040F0004D2007FC03D04EF40C948620509540953B
:10410000309521953F4F4F4F5F4F08959095809583
:10411000709561957F4F8F4F9F4F0895EE0FFF1F52
:104120000590F491E02D09940E94EA20A59F900D3E
:10413000B49F900DA49F800D911D112408952F927E
:104140003F924F925F926F927F928F929F92AF9227
:10415000BF92CF92DF92EF92FF920F931F93CF9374
:10416000DF93CDB7DEB7CA1BDB0B0FB6F894DEBF0B
:104170000FBECDBF09942A88398848885F846E8431
:104180007D848C849B84AA84B984C884DF80EE807B
:10419000FD800C811B81AA81B981CE0FD11D0FB684
:1041A000F894DEBF0FBECDBFED010895AA1BBB1B67
:1041B00051E107C0AA1FBB1FA617B70710F0A61B27
:1041C000B70B881F991F5A95A9F780959095BC0148
:1041D000CD010895A29FB001B39FC001A39F700DB0
:1041E000811D1124911DB29F700D811D1124911DFF
:1041F0000895F999FECF92BD81BDF89A992780B5AF
:104200000895262FF999FECF1FBA92BD81BD20BD1A
:104210000FB6F894FA9AF99A0FBE0196089510E035
:10422000CBEED0E004C0FE010E948E202196CC3E51
:08423000D107C9F7F894FFCF94
:104238000000240480000000400014005400444999
:10424800592056656E74696C61746F722076312ED0
:1042580030005374617274696E670053504420567D
:104268004F4C2052535420495445002020003129F6
:1042780020427265617468696E6720537065656471
:104288000020205350443A20256900322920566FD7
:104298006C756D65206F6620616972002020564F2D
:1042A8004C3A20256925250033292054204265747D
:1042B8007765656E204272656174687300202052CC
:1042C80053543A20002073656300342920496E68EE
:1042D800616C6520746F20457868616C65002020EA
:1042E8004954453A20003529204D6F74696F6E2076
:1042F8004C656E67746800202053746570733A20AB
:10430800256900486F6C6420327320746F205361F4
:1043180076650000000000280B820E770A7A0A00F2
:10432800000000470D820EE70C250DB90CD30CC513
:104338000C00000000F512C512770AC4129912A1E8
:0443480012B5120098
:00000001FF
